{
  "contractName": "SolidVote",
  "abi": [
    {
      "inputs": [],
      "stateMutability": "nonpayable",
      "type": "constructor"
    },
    {
      "inputs": [
        {
          "internalType": "bytes32",
          "name": "",
          "type": "bytes32"
        }
      ],
      "name": "ballot",
      "outputs": [
        {
          "internalType": "string",
          "name": "label",
          "type": "string"
        },
        {
          "internalType": "address",
          "name": "owner",
          "type": "address"
        },
        {
          "internalType": "uint8",
          "name": "numberOfCandidates",
          "type": "uint8"
        },
        {
          "internalType": "bool",
          "name": "openElection",
          "type": "bool"
        },
        {
          "internalType": "string",
          "name": "message",
          "type": "string"
        },
        {
          "internalType": "bool",
          "name": "votingOpen",
          "type": "bool"
        }
      ],
      "stateMutability": "view",
      "type": "function",
      "constant": true
    },
    {
      "inputs": [
        {
          "internalType": "bytes32",
          "name": "ballotID",
          "type": "bytes32"
        }
      ],
      "name": "getNonce",
      "outputs": [
        {
          "internalType": "uint256",
          "name": "",
          "type": "uint256"
        }
      ],
      "stateMutability": "view",
      "type": "function",
      "constant": true
    },
    {
      "inputs": [
        {
          "internalType": "bytes32",
          "name": "ballotID",
          "type": "bytes32"
        }
      ],
      "name": "getMyVote",
      "outputs": [
        {
          "internalType": "string",
          "name": "",
          "type": "string"
        },
        {
          "internalType": "uint32",
          "name": "",
          "type": "uint32"
        }
      ],
      "stateMutability": "view",
      "type": "function",
      "constant": true
    },
    {
      "inputs": [
        {
          "internalType": "bytes32",
          "name": "ballotID",
          "type": "bytes32"
        },
        {
          "internalType": "uint32",
          "name": "vote",
          "type": "uint32"
        },
        {
          "internalType": "uint256",
          "name": "nonce",
          "type": "uint256"
        }
      ],
      "name": "voteFor",
      "outputs": [],
      "stateMutability": "nonpayable",
      "type": "function"
    },
    {
      "inputs": [
        {
          "internalType": "bytes32",
          "name": "ballotID",
          "type": "bytes32"
        }
      ],
      "name": "getVoteTotals",
      "outputs": [
        {
          "internalType": "string[]",
          "name": "",
          "type": "string[]"
        },
        {
          "internalType": "uint48[]",
          "name": "",
          "type": "uint48[]"
        }
      ],
      "stateMutability": "view",
      "type": "function",
      "constant": true
    },
    {
      "inputs": [
        {
          "internalType": "bytes32",
          "name": "ballotID",
          "type": "bytes32"
        },
        {
          "internalType": "string[]",
          "name": "listOfCandidates",
          "type": "string[]"
        },
        {
          "internalType": "address[]",
          "name": "listOfApprovedVoters",
          "type": "address[]"
        },
        {
          "internalType": "string",
          "name": "ballotLabel",
          "type": "string"
        },
        {
          "internalType": "string",
          "name": "ballotMessage",
          "type": "string"
        },
        {
          "internalType": "bool",
          "name": "ballotOpenElection",
          "type": "bool"
        }
      ],
      "name": "createBallot",
      "outputs": [],
      "stateMutability": "nonpayable",
      "type": "function"
    },
    {
      "inputs": [
        {
          "internalType": "bytes32",
          "name": "ballotID",
          "type": "bytes32"
        }
      ],
      "name": "checkForBallot",
      "outputs": [
        {
          "internalType": "bool",
          "name": "",
          "type": "bool"
        }
      ],
      "stateMutability": "view",
      "type": "function",
      "constant": true
    },
    {
      "inputs": [
        {
          "internalType": "bytes32",
          "name": "ballotID",
          "type": "bytes32"
        }
      ],
      "name": "getBallot",
      "outputs": [
        {
          "internalType": "string",
          "name": "",
          "type": "string"
        },
        {
          "internalType": "string[]",
          "name": "",
          "type": "string[]"
        },
        {
          "internalType": "string",
          "name": "",
          "type": "string"
        },
        {
          "internalType": "bool",
          "name": "",
          "type": "bool"
        }
      ],
      "stateMutability": "view",
      "type": "function",
      "constant": true
    },
    {
      "inputs": [],
      "name": "createBallotID",
      "outputs": [
        {
          "internalType": "bytes32",
          "name": "",
          "type": "bytes32"
        }
      ],
      "stateMutability": "view",
      "type": "function",
      "constant": true
    }
  ],
  "bytecode": "0x608060405234801561001057600080fd5b50336000806101000a81548173ffffffffffffffffffffffffffffffffffffffff021916908373ffffffffffffffffffffffffffffffffffffffff160217905550612e03806100606000396000f3fe608060405234801561001057600080fd5b50600436106100935760003560e01c80635d26d201116100665780635d26d2011461014557806394ad119a14610163578063b84104de14610196578063f8999858146101c7578063fe293743146101fc57610093565b806309e12b521461009857806321c21dc9146100c95780633206728a146100f95780634136a33c14610115575b600080fd5b6100b260048036038101906100ad9190611d68565b610218565b6040516100c0929190611e4d565b60405180910390f35b6100e360048036038101906100de9190611d68565b61040c565b6040516100f09190611e98565b60405180910390f35b610113600480360381019061010e9190611f15565b61048a565b005b61012f600480360381019061012a9190611d68565b610c94565b60405161013c9190611f77565b60405180910390f35b61014d610cf4565b60405161015a9190611fa1565b60405180910390f35b61017d60048036038101906101789190611d68565b610d29565b60405161018d94939291906120c8565b60405180910390f35b6101b060048036038101906101ab9190611d68565b611035565b6040516101be9291906121f2565b60405180910390f35b6101e160048036038101906101dc9190611d68565b6112c4565b6040516101f396959493929190612286565b60405180910390f35b6102166004803603810190610211919061262b565b611457565b005b60606000806001600085815260200190815260200160002060040160003373ffffffffffffffffffffffffffffffffffffffff1673ffffffffffffffffffffffffffffffffffffffff16815260200190815260200160002060000160059054906101000a900460ff16905060011515811515146102ca576040517f08c379a00000000000000000000000000000000000000000000000000000000081526004016102c19061279a565b60405180910390fd5b60006001600086815260200190815260200160002060040160003373ffffffffffffffffffffffffffffffffffffffff1673ffffffffffffffffffffffffffffffffffffffff16815260200190815260200160002060000160009054906101000a900463ffffffff169050600160008681526020019081526020016000206002018163ffffffff1681548110610363576103626127ba565b5b90600052602060002090600202016000018181805461038190612818565b80601f01602080910402602001604051908101604052809291908181526020018280546103ad90612818565b80156103fa5780601f106103cf576101008083540402835291602001916103fa565b820191906000526020600020905b8154815290600101906020018083116103dd57829003601f168201915b50505050509150935093505050915091565b60008073ffffffffffffffffffffffffffffffffffffffff166001600084815260200190815260200160002060010160009054906101000a900473ffffffffffffffffffffffffffffffffffffffff1673ffffffffffffffffffffffffffffffffffffffff16036104805760009050610485565b600190505b919050565b6001600084815260200190815260200160002060040160003373ffffffffffffffffffffffffffffffffffffffff1673ffffffffffffffffffffffffffffffffffffffff168152602001908152602001600020600101548114610522576040517f08c379a000000000000000000000000000000000000000000000000000000000815260040161051990612895565b60405180910390fd5b7fffffffffffffffffffffffffffffffffffffffffffffffffffffffffffffffff600160008581526020019081526020016000206002018363ffffffff1681548110610571576105706127ba565b5b906000526020600020906002020160010160009054906101000a900465ffffffffffff1665ffffffffffff16106105dd576040517f08c379a00000000000000000000000000000000000000000000000000000000081526004016105d49061294d565b60405180910390fd5b6000600160008581526020019081526020016000206002018363ffffffff168154811061060d5761060c6127ba565b5b9060005260206000209060020201600001805461062990612818565b90501161066b576040517f08c379a0000000000000000000000000000000000000000000000000000000008152600401610662906129df565b60405180910390fd5b600015156001600085815260200190815260200160002060030160019054906101000a900460ff1615150361074557600115156001600085815260200190815260200160002060040160003373ffffffffffffffffffffffffffffffffffffffff1673ffffffffffffffffffffffffffffffffffffffff16815260200190815260200160002060000160049054906101000a900460ff16151514610744576040517f08c379a000000000000000000000000000000000000000000000000000000000815260040161073b90612a4b565b60405180910390fd5b5b600115156001600085815260200190815260200160002060040160003373ffffffffffffffffffffffffffffffffffffffff1673ffffffffffffffffffffffffffffffffffffffff16815260200190815260200160002060000160059054906101000a900460ff161515146108ab57600180600085815260200190815260200160002060040160003373ffffffffffffffffffffffffffffffffffffffff1673ffffffffffffffffffffffffffffffffffffffff16815260200190815260200160002060000160056101000a81548160ff021916908315150217905550600160008481526020019081526020016000206002018263ffffffff16815481106108505761084f6127ba565b5b9060005260206000209060020201600101600081819054906101000a900465ffffffffffff168092919061088390612a9a565b91906101000a81548165ffffffffffff021916908365ffffffffffff16021790555050610ace565b8163ffffffff166001600085815260200190815260200160002060040160003373ffffffffffffffffffffffffffffffffffffffff1673ffffffffffffffffffffffffffffffffffffffff16815260200190815260200160002060000160009054906101000a900463ffffffff1663ffffffff160361095f576040517f08c379a000000000000000000000000000000000000000000000000000000000815260040161095690612b14565b60405180910390fd5b600160008481526020019081526020016000206002016001600085815260200190815260200160002060040160003373ffffffffffffffffffffffffffffffffffffffff1673ffffffffffffffffffffffffffffffffffffffff16815260200190815260200160002060000160009054906101000a900463ffffffff1663ffffffff16815481106109f3576109f26127ba565b5b9060005260206000209060020201600101600081819054906101000a900465ffffffffffff1680929190610a2690612b34565b91906101000a81548165ffffffffffff021916908365ffffffffffff16021790555050600160008481526020019081526020016000206002018263ffffffff1681548110610a7757610a766127ba565b5b9060005260206000209060020201600101600081819054906101000a900465ffffffffffff1680929190610aaa90612a9a565b91906101000a81548165ffffffffffff021916908365ffffffffffff160217905550505b816001600085815260200190815260200160002060040160003373ffffffffffffffffffffffffffffffffffffffff1673ffffffffffffffffffffffffffffffffffffffff16815260200190815260200160002060000160006101000a81548163ffffffff021916908363ffffffff1602179055507fffffffffffffffffffffffffffffffffffffffffffffffffffffffffffffffff6001600085815260200190815260200160002060040160003373ffffffffffffffffffffffffffffffffffffffff1673ffffffffffffffffffffffffffffffffffffffff168152602001908152602001600020600101541015610c32576001600084815260200190815260200160002060040160003373ffffffffffffffffffffffffffffffffffffffff1673ffffffffffffffffffffffffffffffffffffffff1681526020019081526020016000206001016000815480929190610c2890612b5d565b9190505550610c8f565b60006001600085815260200190815260200160002060040160003373ffffffffffffffffffffffffffffffffffffffff1673ffffffffffffffffffffffffffffffffffffffff168152602001908152602001600020600101819055505b505050565b60006001600083815260200190815260200160002060040160003373ffffffffffffffffffffffffffffffffffffffff1673ffffffffffffffffffffffffffffffffffffffff168152602001908152602001600020600101549050919050565b6000803342604051602001610d0a929190612c0e565b6040516020818303038152906040528051906020012090508091505090565b606080606060006060600160008781526020019081526020016000206002018054905067ffffffffffffffff811115610d6557610d646122fa565b5b604051908082528060200260200182016040528015610d9857816020015b6060815260200190600190039081610d835790505b50905060005b60016000888152602001908152602001600020600201805490508160ff161015610ebb57600160008881526020019081526020016000206002018160ff1681548110610ded57610dec6127ba565b5b90600052602060002090600202016000018054610e0990612818565b80601f0160208091040260200160405190810160405280929190818152602001828054610e3590612818565b8015610e825780601f10610e5757610100808354040283529160200191610e82565b820191906000526020600020905b815481529060010190602001808311610e6557829003601f168201915b5050505050828260ff1681518110610e9d57610e9c6127ba565b5b60200260200101819052508080610eb390612c3a565b915050610d9e565b50600160008781526020019081526020016000206000018160016000898152602001908152602001600020600501600160008a815260200190815260200160002060030160019054906101000a900460ff16838054610f1990612818565b80601f0160208091040260200160405190810160405280929190818152602001828054610f4590612818565b8015610f925780601f10610f6757610100808354040283529160200191610f92565b820191906000526020600020905b815481529060010190602001808311610f7557829003601f168201915b50505050509350818054610fa590612818565b80601f0160208091040260200160405190810160405280929190818152602001828054610fd190612818565b801561101e5780601f10610ff35761010080835404028352916020019161101e565b820191906000526020600020905b81548152906001019060200180831161100157829003601f168201915b505050505091509450945094509450509193509193565b60608060006001600085815260200190815260200160002060030160009054906101000a900460ff16905060008160ff1667ffffffffffffffff81111561107f5761107e6122fa565b5b6040519080825280602002602001820160405280156110b257816020015b606081526020019060019003908161109d5790505b50905060008260ff1667ffffffffffffffff8111156110d4576110d36122fa565b5b6040519080825280602002602001820160405280156111025781602001602082028036833780820191505090505b50905060005b6001600088815260200190815260200160002060030160009054906101000a900460ff1660ff168160ff1610156112b557600160008881526020019081526020016000206002018160ff1681548110611164576111636127ba565b5b9060005260206000209060020201600001805461118090612818565b80601f01602080910402602001604051908101604052809291908181526020018280546111ac90612818565b80156111f95780601f106111ce576101008083540402835291602001916111f9565b820191906000526020600020905b8154815290600101906020018083116111dc57829003601f168201915b5050505050838260ff1681518110611214576112136127ba565b5b6020026020010181905250600160008881526020019081526020016000206002018160ff168154811061124a576112496127ba565b5b906000526020600020906002020160010160009054906101000a900465ffffffffffff16828260ff1681518110611284576112836127ba565b5b602002602001019065ffffffffffff16908165ffffffffffff168152505080806112ad90612c3a565b915050611108565b50818194509450505050915091565b60016020528060005260406000206000915090508060000180546112e790612818565b80601f016020809104026020016040519081016040528092919081815260200182805461131390612818565b80156113605780601f1061133557610100808354040283529160200191611360565b820191906000526020600020905b81548152906001019060200180831161134357829003601f168201915b5050505050908060010160009054906101000a900473ffffffffffffffffffffffffffffffffffffffff16908060030160009054906101000a900460ff16908060030160019054906101000a900460ff16908060050180546113c190612818565b80601f01602080910402602001604051908101604052809291908181526020018280546113ed90612818565b801561143a5780601f1061140f5761010080835404028352916020019161143a565b820191906000526020600020905b81548152906001019060200180831161141d57829003601f168201915b5050505050908060060160009054906101000a900460ff16905086565b60ff85511061149b576040517f08c379a000000000000000000000000000000000000000000000000000000000815260040161149290612caf565b60405180910390fd5b60008551116114df576040517f08c379a00000000000000000000000000000000000000000000000000000000081526004016114d690612d1b565b60405180910390fd5b600073ffffffffffffffffffffffffffffffffffffffff166001600088815260200190815260200160002060010160009054906101000a900473ffffffffffffffffffffffffffffffffffffffff1673ffffffffffffffffffffffffffffffffffffffff161480156115b357503373ffffffffffffffffffffffffffffffffffffffff166001600088815260200190815260200160002060010160009054906101000a900473ffffffffffffffffffffffffffffffffffffffff1673ffffffffffffffffffffffffffffffffffffffff1614155b156115c2576115c186611610565b5b6115cc868661170d565b6115d686856118ae565b6115e086846119ce565b6115ea8683611a6b565b80156115fe576115f986611b08565b611608565b61160786611ba7565b5b505050505050565b600073ffffffffffffffffffffffffffffffffffffffff166001600083815260200190815260200160002060010160009054906101000a900473ffffffffffffffffffffffffffffffffffffffff1673ffffffffffffffffffffffffffffffffffffffff16146116b5576040517f08c379a00000000000000000000000000000000000000000000000000000000081526004016116ac90612dad565b60405180910390fd5b336001600083815260200190815260200160002060010160006101000a81548173ffffffffffffffffffffffffffffffffffffffff021916908373ffffffffffffffffffffffffffffffffffffffff16021790555050565b3373ffffffffffffffffffffffffffffffffffffffff166001600084815260200190815260200160002060010160009054906101000a900473ffffffffffffffffffffffffffffffffffffffff1673ffffffffffffffffffffffffffffffffffffffff161461177b57600080fd5b60005b81518160ff16101561186157600160008481526020019081526020016000206002016040518060400160405280848460ff16815181106117c1576117c06127ba565b5b60200260200101518152602001600065ffffffffffff1681525090806001815401808255809150506001900390600052602060002090600202016000909190919091506000820151816000019080519060200190611820929190611c7b565b5060208201518160010160006101000a81548165ffffffffffff021916908365ffffffffffff1602179055505050808061185990612c3a565b91505061177e565b5060016000838152602001908152602001600020600201805490506001600084815260200190815260200160002060030160006101000a81548160ff021916908360ff1602179055505050565b3373ffffffffffffffffffffffffffffffffffffffff166001600084815260200190815260200160002060010160009054906101000a900473ffffffffffffffffffffffffffffffffffffffff1673ffffffffffffffffffffffffffffffffffffffff161461191c57600080fd5b60005b81518160ff1610156119c95760018060008581526020019081526020016000206004016000848460ff168151811061195a576119596127ba565b5b602002602001015173ffffffffffffffffffffffffffffffffffffffff1673ffffffffffffffffffffffffffffffffffffffff16815260200190815260200160002060000160046101000a81548160ff02191690831515021790555080806119c190612c3a565b91505061191f565b505050565b3373ffffffffffffffffffffffffffffffffffffffff166001600084815260200190815260200160002060010160009054906101000a900473ffffffffffffffffffffffffffffffffffffffff1673ffffffffffffffffffffffffffffffffffffffff1614611a3c57600080fd5b80600160008481526020019081526020016000206000019080519060200190611a66929190611c7b565b505050565b3373ffffffffffffffffffffffffffffffffffffffff166001600084815260200190815260200160002060010160009054906101000a900473ffffffffffffffffffffffffffffffffffffffff1673ffffffffffffffffffffffffffffffffffffffff1614611ad957600080fd5b80600160008481526020019081526020016000206005019080519060200190611b03929190611c7b565b505050565b3373ffffffffffffffffffffffffffffffffffffffff166001600083815260200190815260200160002060010160009054906101000a900473ffffffffffffffffffffffffffffffffffffffff1673ffffffffffffffffffffffffffffffffffffffff1614611b7657600080fd5b600180600083815260200190815260200160002060030160016101000a81548160ff02191690831515021790555050565b3373ffffffffffffffffffffffffffffffffffffffff166001600083815260200190815260200160002060010160009054906101000a900473ffffffffffffffffffffffffffffffffffffffff1673ffffffffffffffffffffffffffffffffffffffff1614611c1557600080fd5b600015156001600083815260200190815260200160002060060160009054906101000a900460ff16151514611c4957600080fd5b60006001600083815260200190815260200160002060030160016101000a81548160ff02191690831515021790555050565b828054611c8790612818565b90600052602060002090601f016020900481019282611ca95760008555611cf0565b82601f10611cc257805160ff1916838001178555611cf0565b82800160010185558215611cf0579182015b82811115611cef578251825591602001919060010190611cd4565b5b509050611cfd9190611d01565b5090565b5b80821115611d1a576000816000905550600101611d02565b5090565b6000604051905090565b600080fd5b600080fd5b6000819050919050565b611d4581611d32565b8114611d5057600080fd5b50565b600081359050611d6281611d3c565b92915050565b600060208284031215611d7e57611d7d611d28565b5b6000611d8c84828501611d53565b91505092915050565b600081519050919050565b600082825260208201905092915050565b60005b83811015611dcf578082015181840152602081019050611db4565b83811115611dde576000848401525b50505050565b6000601f19601f8301169050919050565b6000611e0082611d95565b611e0a8185611da0565b9350611e1a818560208601611db1565b611e2381611de4565b840191505092915050565b600063ffffffff82169050919050565b611e4781611e2e565b82525050565b60006040820190508181036000830152611e678185611df5565b9050611e766020830184611e3e565b9392505050565b60008115159050919050565b611e9281611e7d565b82525050565b6000602082019050611ead6000830184611e89565b92915050565b611ebc81611e2e565b8114611ec757600080fd5b50565b600081359050611ed981611eb3565b92915050565b6000819050919050565b611ef281611edf565b8114611efd57600080fd5b50565b600081359050611f0f81611ee9565b92915050565b600080600060608486031215611f2e57611f2d611d28565b5b6000611f3c86828701611d53565b9350506020611f4d86828701611eca565b9250506040611f5e86828701611f00565b9150509250925092565b611f7181611edf565b82525050565b6000602082019050611f8c6000830184611f68565b92915050565b611f9b81611d32565b82525050565b6000602082019050611fb66000830184611f92565b92915050565b600081519050919050565b600082825260208201905092915050565b6000819050602082019050919050565b600082825260208201905092915050565b600061200482611d95565b61200e8185611fe8565b935061201e818560208601611db1565b61202781611de4565b840191505092915050565b600061203e8383611ff9565b905092915050565b6000602082019050919050565b600061205e82611fbc565b6120688185611fc7565b93508360208202850161207a85611fd8565b8060005b858110156120b657848403895281516120978582612032565b94506120a283612046565b925060208a0199505060018101905061207e565b50829750879550505050505092915050565b600060808201905081810360008301526120e28187611df5565b905081810360208301526120f68186612053565b9050818103604083015261210a8185611df5565b90506121196060830184611e89565b95945050505050565b600081519050919050565b600082825260208201905092915050565b6000819050602082019050919050565b600065ffffffffffff82169050919050565b6121698161214e565b82525050565b600061217b8383612160565b60208301905092915050565b6000602082019050919050565b600061219f82612122565b6121a9818561212d565b93506121b48361213e565b8060005b838110156121e55781516121cc888261216f565b97506121d783612187565b9250506001810190506121b8565b5085935050505092915050565b6000604082019050818103600083015261220c8185612053565b905081810360208301526122208184612194565b90509392505050565b600073ffffffffffffffffffffffffffffffffffffffff82169050919050565b600061225482612229565b9050919050565b61226481612249565b82525050565b600060ff82169050919050565b6122808161226a565b82525050565b600060c08201905081810360008301526122a08189611df5565b90506122af602083018861225b565b6122bc6040830187612277565b6122c96060830186611e89565b81810360808301526122db8185611df5565b90506122ea60a0830184611e89565b979650505050505050565b600080fd5b7f4e487b7100000000000000000000000000000000000000000000000000000000600052604160045260246000fd5b61233282611de4565b810181811067ffffffffffffffff82111715612351576123506122fa565b5b80604052505050565b6000612364611d1e565b90506123708282612329565b919050565b600067ffffffffffffffff8211156123905761238f6122fa565b5b602082029050602081019050919050565b600080fd5b600080fd5b600067ffffffffffffffff8211156123c6576123c56122fa565b5b6123cf82611de4565b9050602081019050919050565b82818337600083830152505050565b60006123fe6123f9846123ab565b61235a565b90508281526020810184848401111561241a576124196123a6565b5b6124258482856123dc565b509392505050565b600082601f830112612442576124416122f5565b5b81356124528482602086016123eb565b91505092915050565b600061246e61246984612375565b61235a565b90508083825260208201905060208402830185811115612491576124906123a1565b5b835b818110156124d857803567ffffffffffffffff8111156124b6576124b56122f5565b5b8086016124c3898261242d565b85526020850194505050602081019050612493565b5050509392505050565b600082601f8301126124f7576124f66122f5565b5b813561250784826020860161245b565b91505092915050565b600067ffffffffffffffff82111561252b5761252a6122fa565b5b602082029050602081019050919050565b61254581612249565b811461255057600080fd5b50565b6000813590506125628161253c565b92915050565b600061257b61257684612510565b61235a565b9050808382526020820190506020840283018581111561259e5761259d6123a1565b5b835b818110156125c757806125b38882612553565b8452602084019350506020810190506125a0565b5050509392505050565b600082601f8301126125e6576125e56122f5565b5b81356125f6848260208601612568565b91505092915050565b61260881611e7d565b811461261357600080fd5b50565b600081359050612625816125ff565b92915050565b60008060008060008060c0878903121561264857612647611d28565b5b600061265689828a01611d53565b965050602087013567ffffffffffffffff81111561267757612676611d2d565b5b61268389828a016124e2565b955050604087013567ffffffffffffffff8111156126a4576126a3611d2d565b5b6126b089828a016125d1565b945050606087013567ffffffffffffffff8111156126d1576126d0611d2d565b5b6126dd89828a0161242d565b935050608087013567ffffffffffffffff8111156126fe576126fd611d2d565b5b61270a89828a0161242d565b92505060a061271b89828a01612616565b9150509295509295509295565b7f596f7520686176656e277420766f7465642c20636865636b206163636f756e7460008201527f2061646472657373000000000000000000000000000000000000000000000000602082015250565b6000612784602883611da0565b915061278f82612728565b604082019050919050565b600060208201905081810360008301526127b381612777565b9050919050565b7f4e487b7100000000000000000000000000000000000000000000000000000000600052603260045260246000fd5b7f4e487b7100000000000000000000000000000000000000000000000000000000600052602260045260246000fd5b6000600282049050600182168061283057607f821691505b602082108103612843576128426127e9565b5b50919050565b7f4e6f6e6365206572726f722c207265706c61792061747461636b2e0000000000600082015250565b600061287f601b83611da0565b915061288a82612849565b602082019050919050565b600060208201905081810360008301526128ae81612872565b9050919050565b7f4d6178206e756d626572206f6620766f74657320726561636865642c2074686160008201527f7473206d6f7265207468616e20737461727320696e2074686520756e6976657260208201527f7365212049207375737065637420616e2061747461636b2e0000000000000000604082015250565b6000612937605883611da0565b9150612942826128b5565b606082019050919050565b600060208201905081810360008301526129668161292a565b9050919050565b7f496e76616c696420766f74652c2063616e64696461746520646f65736e27742060008201527f65786973742e0000000000000000000000000000000000000000000000000000602082015250565b60006129c9602683611da0565b91506129d48261296d565b604082019050919050565b600060208201905081810360008301526129f8816129bc565b9050919050565b7f546869732061646472657373206973206e6f7420617574686f72697a65642e00600082015250565b6000612a35601f83611da0565b9150612a40826129ff565b602082019050919050565b60006020820190508181036000830152612a6481612a28565b9050919050565b7f4e487b7100000000000000000000000000000000000000000000000000000000600052601160045260246000fd5b6000612aa58261214e565b915065ffffffffffff8203612abd57612abc612a6b565b5b600182019050919050565b7f53616d6520766f7465206173207265636f72646564206f6e20636861696e2e00600082015250565b6000612afe601f83611da0565b9150612b0982612ac8565b602082019050919050565b60006020820190508181036000830152612b2d81612af1565b9050919050565b6000612b3f8261214e565b915060008203612b5257612b51612a6b565b5b600182039050919050565b6000612b6882611edf565b91507fffffffffffffffffffffffffffffffffffffffffffffffffffffffffffffffff8203612b9a57612b99612a6b565b5b600182019050919050565b60008160601b9050919050565b6000612bbd82612ba5565b9050919050565b6000612bcf82612bb2565b9050919050565b612be7612be282612249565b612bc4565b82525050565b6000819050919050565b612c08612c0382611edf565b612bed565b82525050565b6000612c1a8285612bd6565b601482019150612c2a8284612bf7565b6020820191508190509392505050565b6000612c458261226a565b915060ff8203612c5857612c57612a6b565b5b600182019050919050565b7f4d6178696d756d203235362063616e6469646174657300000000000000000000600082015250565b6000612c99601683611da0565b9150612ca482612c63565b602082019050919050565b60006020820190508181036000830152612cc881612c8c565b9050919050565b7f4e6f2063616e646964617465732073656e740000000000000000000000000000600082015250565b6000612d05601283611da0565b9150612d1082612ccf565b602082019050919050565b60006020820190508181036000830152612d3481612cf8565b9050919050565b7f42616c6c6f74494420616c726561647920696e207573652c206765742061206e60008201527f65772062616c6c6f744944000000000000000000000000000000000000000000602082015250565b6000612d97602b83611da0565b9150612da282612d3b565b604082019050919050565b60006020820190508181036000830152612dc681612d8a565b905091905056fea26469706673582212208c00427ad99d78a0dabd27e848647791ad1908972e5ea78dcdcbc8de0ca404ed64736f6c634300080d0033",
  "immutableReferences": {},
  "source": "// SPDX-License-Identifier: GPL-3.0\r\n\r\npragma solidity >=0.7.0 <0.9.0;\r\n\r\ncontract SolidVote {\r\n    uint256 constant MAX_UINT256 = 2**256 - 1;\r\n\r\n    struct Candidate {\r\n        string name;\r\n        uint48 votes;\r\n    }\r\n\r\n    struct Voter {\r\n        uint32 votedFor;\r\n        bool authorized;\r\n        bool voted;\r\n        uint256 nonce;\r\n    }\r\n\r\n    struct Ballot {\r\n        string label;\r\n        address owner;\r\n        Candidate[] candidate;\r\n        uint8 numberOfCandidates;\r\n        bool openElection;\r\n        mapping(address => Voter) voter;\r\n        string message;\r\n        bool votingOpen;\r\n    }\r\n\r\n    address private owner;\r\n\r\n    mapping(bytes32 => Ballot) public ballot;\r\n\r\n    modifier onlyOwner() {\r\n        require(msg.sender == owner, \"Caller is not the owner\");\r\n        _;\r\n    }\r\n\r\n    constructor() {\r\n        owner = msg.sender;\r\n    }\r\n\r\n    function getNonce(bytes32 ballotID) public view returns(uint256) {\r\n        return ballot[ballotID].voter[msg.sender].nonce;\r\n    }\r\n\r\n    function getMyVote(bytes32 ballotID) public view returns (string memory, uint32) {\r\n        bool voted = ballot[ballotID].voter[msg.sender].voted;\r\n        require (voted == true, \"You haven't voted, check account address\");\r\n        uint32 votedFor = ballot[ballotID].voter[msg.sender].votedFor;\r\n        return (ballot[ballotID].candidate[votedFor].name, votedFor);\r\n    }\r\n    \r\n    function voteFor(bytes32 ballotID, uint32 vote, uint256 nonce) public {\r\n        require(nonce == ballot[ballotID].voter[msg.sender].nonce, \"Nonce error, replay attack.\");\r\n        require (ballot[ballotID].candidate[vote].votes < MAX_UINT256, \"Max number of votes reached, thats more than stars in the universe! I suspect an attack.\");\r\n        require(bytes(ballot[ballotID].candidate[vote].name).length > 0, \"Invalid vote, candidate doesn't exist.\");\r\n        if (ballot[ballotID].openElection == false) {\r\n            require(ballot[ballotID].voter[msg.sender].authorized == true, \"This address is not authorized.\");\r\n        }\r\n        if (ballot[ballotID].voter[msg.sender].voted != true) {\r\n            ballot[ballotID].voter[msg.sender].voted = true;\r\n            ballot[ballotID].candidate[vote].votes++;\r\n        } else {\r\n            require(ballot[ballotID].voter[msg.sender].votedFor != vote, \"Same vote as recorded on chain.\");\r\n            ballot[ballotID].candidate[ballot[ballotID].voter[msg.sender].votedFor].votes--;\r\n            ballot[ballotID].candidate[vote].votes++;\r\n        }\r\n        ballot[ballotID].voter[msg.sender].votedFor = vote;\r\n        if (ballot[ballotID].voter[msg.sender].nonce < MAX_UINT256) { \r\n            ballot[ballotID].voter[msg.sender].nonce++; \r\n        } else {\r\n            ballot[ballotID].voter[msg.sender].nonce = 0;\r\n        }\r\n    }\r\n\r\n    function getVoteTotals(bytes32 ballotID) public view returns (string[] memory, uint48[] memory) {\r\n        uint8 numberOfCandidates = ballot[ballotID].numberOfCandidates;\r\n        string[] memory candidateNames = new string[](numberOfCandidates);\r\n        uint48[] memory voteTotals = new uint48[](numberOfCandidates);\r\n        \r\n        for (uint8 i = 0; i < ballot[ballotID].numberOfCandidates; i++) {\r\n            candidateNames[i] = ballot[ballotID].candidate[i].name;\r\n            voteTotals[i] = ballot[ballotID].candidate[i].votes;\r\n        }\r\n        return (candidateNames, voteTotals);\r\n    }\r\n    \r\n    function createBallot (\r\n        bytes32 ballotID, string[] memory listOfCandidates, address[] memory listOfApprovedVoters, \r\n        string memory ballotLabel, string memory ballotMessage, bool ballotOpenElection) public {\r\n\r\n        require(listOfCandidates.length < 255, \"Maximum 256 candidates\");\r\n        require(listOfCandidates.length > 0, \"No candidates sent\");\r\n\r\n        if (ballot[ballotID].owner == address(0) && ballot[ballotID].owner != msg.sender) {\r\n            setOwnershipOfBallot(ballotID);\r\n        }\r\n        addCandidatesToBallot(ballotID, listOfCandidates);\r\n        addApprovedVotersToBallot(ballotID, listOfApprovedVoters);\r\n        addLabelToBallot(ballotID, ballotLabel);\r\n        addMessageToBallot(ballotID, ballotMessage);\r\n        if (ballotOpenElection) {\r\n            setOpenElection(ballotID);\r\n        } else {\r\n            setClosedElection(ballotID);\r\n        }\r\n    }\r\n\r\n    function checkForBallot (bytes32 ballotID) public view returns(bool) {\r\n        if (ballot[ballotID].owner == address(0)) {\r\n            return false;\r\n        } else{\r\n            return true;\r\n        }\r\n    }\r\n    function getBallot (bytes32 ballotID) public view returns(string memory, string[] memory, string memory, bool) {\r\n        string[] memory listOfCandidates;\r\n        listOfCandidates = new string[](ballot[ballotID].candidate.length);\r\n        for (uint8 i = 0; i < ballot[ballotID].candidate.length; i++) {\r\n            listOfCandidates[i] = ballot[ballotID].candidate[i].name;\r\n        }\r\n        return (ballot[ballotID].label, listOfCandidates, ballot[ballotID].message, ballot[ballotID].openElection);\r\n    }\r\n\r\n    function setOwnershipOfBallot (bytes32 ballotID) private {\r\n        require(ballot[ballotID].owner == address(0), \"BallotID already in use, get a new ballotID\");\r\n        ballot[ballotID].owner = msg.sender;\r\n    }\r\n\r\n    function setClosedElection(bytes32 ballotID) private {\r\n        require(ballot[ballotID].owner == msg.sender);\r\n        require(ballot[ballotID].votingOpen == false);\r\n        ballot[ballotID].openElection = false;\r\n    }\r\n    function setOpenElection(bytes32 ballotID) private {\r\n        require(ballot[ballotID].owner == msg.sender);\r\n        ballot[ballotID].openElection = true;\r\n    }\r\n    function addMessageToBallot(bytes32 ballotID, string memory ballotMessage) private {\r\n        require(ballot[ballotID].owner == msg.sender);\r\n        ballot[ballotID].message = ballotMessage;\r\n    }\r\n    function addLabelToBallot(bytes32 ballotID, string memory ballotLabel) private {\r\n        require(ballot[ballotID].owner == msg.sender);\r\n        ballot[ballotID].label = ballotLabel;\r\n    }\r\n    function addApprovedVotersToBallot(bytes32 ballotID, address[] memory listOfApprovedVoters) private {\r\n        require(ballot[ballotID].owner == msg.sender);\r\n        for ( uint8 i = 0; i < listOfApprovedVoters.length; i++ ) {\r\n            ballot[ballotID].voter[listOfApprovedVoters[i]].authorized = true;\r\n        }\r\n    }\r\n    function addCandidatesToBallot(bytes32 ballotID, string[] memory listOfCandidates) private {\r\n        require(ballot[ballotID].owner == msg.sender);\r\n        for ( uint8 i = 0; i < listOfCandidates.length; i++ ) {\r\n            ballot[ballotID].candidate.push(Candidate(listOfCandidates[i], 0));\r\n        }\r\n        ballot[ballotID].numberOfCandidates = uint8(ballot[ballotID].candidate.length);\r\n    }\r\n\r\n    function createBallotID() public view returns(bytes32) {\r\n        bytes32 id = keccak256(abi.encodePacked(msg.sender, block.timestamp));\r\n        return(id);\r\n    }\r\n\r\n}",
  "sourcePath": "c:\\Users\\shadf\\Desktop\\Programming\\Solidity\\SolidVote\\contracts\\SolidVote.sol",
  "compiler": {
    "name": "solc",
    "version": "0.8.13+commit.abaa5c0e.Emscripten.clang"
  },
  "schemaVersion": "3.4.11",
  "updatedAt": "2023-05-15T09:04:28.263Z",
  "networkType": "ethereum",
  "devdoc": {
    "kind": "dev",
    "methods": {},
    "version": 1
  },
  "userdoc": {
    "kind": "user",
    "methods": {},
    "version": 1
  }
}